{
  "contractName": "ContentRegistry",
  "abi": [
    {
      "anonymous": false,
      "inputs": [
        {
          "indexed": false,
          "internalType": "string",
          "name": "id",
          "type": "string"
        },
        {
          "indexed": false,
          "internalType": "string",
          "name": "title",
          "type": "string"
        },
        {
          "indexed": false,
          "internalType": "string",
          "name": "author",
          "type": "string"
        },
        {
          "indexed": false,
          "internalType": "string",
          "name": "date",
          "type": "string"
        },
        {
          "indexed": false,
          "internalType": "string",
          "name": "content",
          "type": "string"
        },
        {
          "indexed": false,
          "internalType": "string",
          "name": "contentHash",
          "type": "string"
        }
      ],
      "name": "ContentAdded",
      "type": "event"
    },
    {
      "inputs": [
        {
          "internalType": "string",
          "name": "",
          "type": "string"
        }
      ],
      "name": "contents",
      "outputs": [
        {
          "internalType": "string",
          "name": "id",
          "type": "string"
        },
        {
          "internalType": "string",
          "name": "title",
          "type": "string"
        },
        {
          "internalType": "string",
          "name": "author",
          "type": "string"
        },
        {
          "internalType": "string",
          "name": "date",
          "type": "string"
        },
        {
          "internalType": "string",
          "name": "content",
          "type": "string"
        },
        {
          "internalType": "string",
          "name": "contentHash",
          "type": "string"
        },
        {
          "internalType": "address",
          "name": "authorAddress",
          "type": "address"
        },
        {
          "internalType": "uint256",
          "name": "timestamp",
          "type": "uint256"
        },
        {
          "internalType": "bool",
          "name": "verified",
          "type": "bool"
        }
      ],
      "stateMutability": "view",
      "type": "function",
      "constant": true
    },
    {
      "inputs": [
        {
          "internalType": "string",
          "name": "_id",
          "type": "string"
        },
        {
          "internalType": "string",
          "name": "_title",
          "type": "string"
        },
        {
          "internalType": "string",
          "name": "_author",
          "type": "string"
        },
        {
          "internalType": "string",
          "name": "_date",
          "type": "string"
        },
        {
          "internalType": "string",
          "name": "_content",
          "type": "string"
        },
        {
          "internalType": "string",
          "name": "_contentHash",
          "type": "string"
        }
      ],
      "name": "registerContent",
      "outputs": [],
      "stateMutability": "nonpayable",
      "type": "function"
    },
    {
      "inputs": [
        {
          "internalType": "string",
          "name": "_id",
          "type": "string"
        }
      ],
      "name": "getContent",
      "outputs": [
        {
          "components": [
            {
              "internalType": "string",
              "name": "id",
              "type": "string"
            },
            {
              "internalType": "string",
              "name": "title",
              "type": "string"
            },
            {
              "internalType": "string",
              "name": "author",
              "type": "string"
            },
            {
              "internalType": "string",
              "name": "date",
              "type": "string"
            },
            {
              "internalType": "string",
              "name": "content",
              "type": "string"
            },
            {
              "internalType": "string",
              "name": "contentHash",
              "type": "string"
            },
            {
              "internalType": "address",
              "name": "authorAddress",
              "type": "address"
            },
            {
              "internalType": "uint256",
              "name": "timestamp",
              "type": "uint256"
            },
            {
              "internalType": "bool",
              "name": "verified",
              "type": "bool"
            }
          ],
          "internalType": "struct ContentRegistry.Content",
          "name": "",
          "type": "tuple"
        }
      ],
      "stateMutability": "view",
      "type": "function",
      "constant": true
    }
  ],
  "bytecode": "0x608060405234801561001057600080fd5b50611012806100206000396000f3fe608060405234801561001057600080fd5b506004361061005d577c010000000000000000000000000000000000000000000000000000000060003504638c9e1f3c8114610062578063a6acce351461008b578063d93e5333146100b3575b600080fd5b610075610070366004610abc565b6100c8565b6040516100829190610b49565b60405180910390f35b61009e610099366004610abc565b6104eb565b60405161008299989796959493929190610c3b565b6100c66100c1366004610ce1565b61087b565b005b6101226040518061012001604052806060815260200160608152602001606081526020016060815260200160608152602001606081526020016000600160a060020a03168152602001600081526020016000151581525090565b6000826040516101329190610dd6565b90815260200160405180910390206040518061012001604052908160008201805461015c90610df2565b80601f016020809104026020016040519081016040528092919081815260200182805461018890610df2565b80156101d55780601f106101aa576101008083540402835291602001916101d5565b820191906000526020600020905b8154815290600101906020018083116101b857829003601f168201915b505050505081526020016001820180546101ee90610df2565b80601f016020809104026020016040519081016040528092919081815260200182805461021a90610df2565b80156102675780601f1061023c57610100808354040283529160200191610267565b820191906000526020600020905b81548152906001019060200180831161024a57829003601f168201915b5050505050815260200160028201805461028090610df2565b80601f01602080910402602001604051908101604052809291908181526020018280546102ac90610df2565b80156102f95780601f106102ce576101008083540402835291602001916102f9565b820191906000526020600020905b8154815290600101906020018083116102dc57829003601f168201915b5050505050815260200160038201805461031290610df2565b80601f016020809104026020016040519081016040528092919081815260200182805461033e90610df2565b801561038b5780601f106103605761010080835404028352916020019161038b565b820191906000526020600020905b81548152906001019060200180831161036e57829003601f168201915b505050505081526020016004820180546103a490610df2565b80601f01602080910402602001604051908101604052809291908181526020018280546103d090610df2565b801561041d5780601f106103f25761010080835404028352916020019161041d565b820191906000526020600020905b81548152906001019060200180831161040057829003601f168201915b5050505050815260200160058201805461043690610df2565b80601f016020809104026020016040519081016040528092919081815260200182805461046290610df2565b80156104af5780601f10610484576101008083540402835291602001916104af565b820191906000526020600020905b81548152906001019060200180831161049257829003601f168201915b50505091835250506006820154600160a060020a031660208201526007820154604082015260089091015460ff16151560609091015292915050565b805160208183018101805160008252928201919093012091528054819061051190610df2565b80601f016020809104026020016040519081016040528092919081815260200182805461053d90610df2565b801561058a5780601f1061055f5761010080835404028352916020019161058a565b820191906000526020600020905b81548152906001019060200180831161056d57829003601f168201915b50505050509080600101805461059f90610df2565b80601f01602080910402602001604051908101604052809291908181526020018280546105cb90610df2565b80156106185780601f106105ed57610100808354040283529160200191610618565b820191906000526020600020905b8154815290600101906020018083116105fb57829003601f168201915b50505050509080600201805461062d90610df2565b80601f016020809104026020016040519081016040528092919081815260200182805461065990610df2565b80156106a65780601f1061067b576101008083540402835291602001916106a6565b820191906000526020600020905b81548152906001019060200180831161068957829003601f168201915b5050505050908060030180546106bb90610df2565b80601f01602080910402602001604051908101604052809291908181526020018280546106e790610df2565b80156107345780601f1061070957610100808354040283529160200191610734565b820191906000526020600020905b81548152906001019060200180831161071757829003601f168201915b50505050509080600401805461074990610df2565b80601f016020809104026020016040519081016040528092919081815260200182805461077590610df2565b80156107c25780601f10610797576101008083540402835291602001916107c2565b820191906000526020600020905b8154815290600101906020018083116107a557829003601f168201915b5050505050908060050180546107d790610df2565b80601f016020809104026020016040519081016040528092919081815260200182805461080390610df2565b80156108505780601f1061082557610100808354040283529160200191610850565b820191906000526020600020905b81548152906001019060200180831161083357829003601f168201915b50505050600683015460078401546008909401549293600160a060020a039091169290915060ff1689565b60405180610120016040528087815260200186815260200185815260200184815260200183815260200182815260200133600160a060020a03168152602001428152602001600015158152506000876040516108d79190610dd6565b908152604051908190036020019020815181906108f49082610e94565b50602082015160018201906109099082610e94565b506040820151600282019061091e9082610e94565b50606082015160038201906109339082610e94565b50608082015160048201906109489082610e94565b5060a0820151600582019061095d9082610e94565b5060c082015160068201805473ffffffffffffffffffffffffffffffffffffffff1916600160a060020a0390921691909117905560e08201516007820155610100909101516008909101805460ff19169115159190911790556040517f1f416170e5225b40545c0f9eb3efc98b70ee3aff0dda6940431048705d0a7282906109f090889088908890889088908890610f5a565b60405180910390a1505050505050565b7f4e487b7100000000000000000000000000000000000000000000000000000000600052604160045260246000fd5b600082601f830112610a4057600080fd5b813567ffffffffffffffff80821115610a5b57610a5b610a00565b604051601f8301601f19908116603f01168101908282118183101715610a8357610a83610a00565b81604052838152866020858801011115610a9c57600080fd5b836020870160208301376000602085830101528094505050505092915050565b600060208284031215610ace57600080fd5b813567ffffffffffffffff811115610ae557600080fd5b610af184828501610a2f565b949350505050565b60005b83811015610b14578181015183820152602001610afc565b50506000910152565b60008151808452610b35816020860160208601610af9565b601f01601f19169290920160200192915050565b6020815260008251610120806020850152610b68610140850183610b1d565b91506020850151601f1980868503016040870152610b868483610b1d565b93506040870151915080868503016060870152610ba38483610b1d565b93506060870151915080868503016080870152610bc08483610b1d565b935060808701519150808685030160a0870152610bdd8483610b1d565b935060a08701519150808685030160c087015250610bfb8382610b1d565b92505060c0850151610c1860e0860182600160a060020a03169052565b5060e0850151610100858101919091529094015115159390920192909252919050565b6000610120808352610c4f8184018d610b1d565b90508281036020840152610c63818c610b1d565b90508281036040840152610c77818b610b1d565b90508281036060840152610c8b818a610b1d565b90508281036080840152610c9f8189610b1d565b905082810360a0840152610cb38188610b1d565b600160a060020a039690961660c0840152505060e08101929092521515610100909101529695505050505050565b60008060008060008060c08789031215610cfa57600080fd5b863567ffffffffffffffff80821115610d1257600080fd5b610d1e8a838b01610a2f565b97506020890135915080821115610d3457600080fd5b610d408a838b01610a2f565b96506040890135915080821115610d5657600080fd5b610d628a838b01610a2f565b95506060890135915080821115610d7857600080fd5b610d848a838b01610a2f565b94506080890135915080821115610d9a57600080fd5b610da68a838b01610a2f565b935060a0890135915080821115610dbc57600080fd5b50610dc989828a01610a2f565b9150509295509295509295565b60008251610de8818460208701610af9565b9190910192915050565b600281046001821680610e0657607f821691505b602082108103610e3f577f4e487b7100000000000000000000000000000000000000000000000000000000600052602260045260246000fd5b50919050565b601f821115610e8f576000818152602081206020601f86010481016020861015610e6c5750805b6020601f860104820191505b81811015610e8b57828155600101610e78565b5050505b505050565b815167ffffffffffffffff811115610eae57610eae610a00565b610ec281610ebc8454610df2565b84610e45565b602080601f831160018114610efb5760008415610edf5750858301515b60028086026008870290910a6000190419821617865550610e8b565b600085815260208120601f198616915b82811015610f2a57888601518255948401946001909101908401610f0b565b5085821015610f4a57878501516008601f88160260020a60001904191681555b5050505050600202600101905550565b60c081526000610f6d60c0830189610b1d565b8281036020840152610f7f8189610b1d565b90508281036040840152610f938188610b1d565b90508281036060840152610fa78187610b1d565b90508281036080840152610fbb8186610b1d565b905082810360a0840152610fcf8185610b1d565b999850505050505050505056fea2646970667358221220f135b75d38d3a46f40c1db7973fdac9c56f393153a5c0676f404fac37e3f315764736f6c63430008150033",
  "immutableReferences": {},
  "source": "// SPDX-License-Identifier: MIT\r\npragma solidity ^0.8.0;\r\n\r\ncontract ContentRegistry {\r\n    struct Content {\r\n        string id;\r\n        string title;\r\n        string author;\r\n        string date;\r\n        string content;\r\n        string contentHash;\r\n        address authorAddress;\r\n        uint256 timestamp;\r\n        bool verified;\r\n    }\r\n\r\n    mapping(string => Content) public contents;\r\n    event ContentAdded(string id, string title, string author, string date, string content, string contentHash);\r\n\r\n    function registerContent(\r\n        string memory _id,\r\n        string memory _title,\r\n        string memory _author,\r\n        string memory _date,\r\n        string memory _content,\r\n        string memory _contentHash\r\n    ) public {\r\n        contents[_id] = Content({\r\n            id: _id,\r\n            title: _title,\r\n            author: _author,\r\n            date: _date,\r\n            content: _content,\r\n            contentHash: _contentHash,\r\n            authorAddress: msg.sender,\r\n            timestamp: block.timestamp,\r\n            verified: false\r\n        });\r\n\r\n        emit ContentAdded(_id, _title, _author, _date, _content, _contentHash);\r\n    }\r\n\r\n    function getContent(string memory _id) public view returns (Content memory) {\r\n        return contents[_id];\r\n    }\r\n}\r\n",
  "sourcePath": "C:\\Users\\cagri\\Desktop\\cs-438-project\\cs438-final-project\\contracts\\ContentRegistry.sol",
  "compiler": {
    "name": "solc",
    "version": "0.8.21+commit.d9974bed.Emscripten.clang"
  },
  "schemaVersion": "3.4.16",
  "updatedAt": "2024-06-03T22:11:45.626Z",
  "networkType": "ethereum",
  "devdoc": {
    "kind": "dev",
    "methods": {},
    "version": 1
  },
  "userdoc": {
    "kind": "user",
    "methods": {},
    "version": 1
  }
}